:020000020000FC
:10000000B6CA13C68FC0FFFF46C2FFFFFFFF21C065
:10001000FFFFFFFFFFFFFFFFFFFFFFFFFFFFFFFFF0
:10002000FFFFFFFFFFFFFFFFFFFFFFFFFFFFFFFFE0
:10003000F0C0000000002801E001F41622010803CE
:100040000000F89410E81093610000936100789428
:1000500008958A93FA93EA933A922A921A920A920C
:100060007A936A935A934A933A932A931A930A93E8
:100070008FB7E5E7F3E000811181228133810F5FC3
:100080001F4F2F4F3F4F00831183228333830F77FE
:1000900039F400917303002319F00A950093730358
:1000A0008FD58FBF09911991299139914991599112
:1000B000699179910990199029903990E991F99174
:1000C0008991189510E010937000402F00E862DAD3
:1000D0000093B3000091B10003600093B10002E00F
:1000E0000093B0000091B100077F0093B10000C001
:1000F00000917000026000937000089500917000FC
:100100000D7FF9CF8A93802F0091E001081741F00D
:10011000853030F48093E001082F93DF082FD2DF81
:1001200089910895E19A189553985B9A0091690016
:10013000077F0093690000916900046000936900E3
:10014000E99808950093BA000FEF0093BB0004E014
:1001500039C01091BC00012F017008950091BC00BE
:1001600000FDFCCF00910202089571DA422F209128
:10017000BC0020FDFCCF40D040A320E00CC0D80143
:10018000A20FB31F5C91DF01A20FB31F5C932395F5
:100190002417A8F32395241718F420E030E0F8CFB3
:1001A00000E002A308EF01A30CD0E4E061CA0091D3
:1001B000BC0000FDFCCF00E00093030208EF0093B9
:1001C000020205EC0093BC00089516D032A130FF66
:1001D00011C040E050E009C0FA01E85FFC4F3081F7
:1001E000F801E40FF51F308343954217A8F37FD041
:1001F0000D7F02A302A1B0CFE1EEF1E008950091DE
:100200000502013218F000E2009305020091050298
:100210000895BA93AA93FA93EA933A932A931A9376
:100220000A933FB70091B900005809F44CC000513F
:1002300009F449C00051B9F1085079F0085069F04B
:10024000085089F0085039F1005AB1F10850A1F175
:10025000085079F1085069F145C0CEDF00E004A3F1
:1002600002A1086002A3C8DF04A110E0DF01A00F13
:10027000B11F0C910093BB0004A1039504A305ECEE
:10028000A1DF3FBF0991199129913991E991F99124
:10029000A991B9911895B0DF04A110A1011729F413
:1002A00002A1016002A304E0EBCF0091B90001A319
:1002B000FACF1DD0046002A31AD0026002A300E0AE
:1002C00004A303A3DCCF98DF2091BB00A3A1B0E07F
:1002D000A85FBC4F2C9303A1039503A302A1016067
:1002E00002A3CDCF0091B90000930202DCCFE1EE72
:1002F000F1E002A108958A93802F59DF082F899198
:100300000895012B11F0509801C0509A5898089503
:10031000012B11F0519801C0519A5998089501E0AC
:100320000DD000E047D000C000E00BC000E006D0D8
:1003300040D000C0509858985198EFCF3BD000C0A3
:1003400001E03BD000C0089584D9802F35D0982F8C
:1003500088E097FB16F401E001C000E0EFDF990FA1
:100360002BD08A95B1F700C05198599828D089B1FF
:1003700023D08270082FE2E07DC968D9402EC901E0
:10038000B0E017D0A8E01BD0BB0F4999B39500E0AF
:10039000D8DFAA95C1F7442011F000E001C001E0C8
:1003A00009D00DD00CD008D004D0FC01B083E5E01A
:1003B0005EC901E010E0ACCF00E010E0A2CF01E0A8
:1003C000C0CF44D9402E812F922FDA01A8DF440CF0
:1003D000042DBADF442403C00D91B6DF43944816C0
:1003E000D8F3992309F4A2DF00C0E1CF30D9B02FB0
:1003F000A12FC90194DFBB0FB1600B2FA5DFB0E0C7
:1004000004C001E0BADF0196B395BA1760F42B2F50
:1004100030E00A2F10E001501040201731079C01F6
:1004200081F700E0EFCF82DFE4E022C911D9219704
:100430000883C901A12FAE0121E011E000E2C1DF74
:100440009C011A2F00E2D2DF00E02196E3E011C9FF
:100450006097103108F01FE0088300E050E009C009
:10046000F901E00FF51F6081FE01E00FF51F6183C8
:1004700003950117A8F3AE0120E0139500E2A1DF78
:1004800000E060960895219608952197188311E061
:100490009E01DEDFF8CF1A930A931FB7D99A009115
:1004A00029030395009329031FBF099119911895FA
:1004B00000E0009328033B98439A00916C00077F6B
:1004C00000936C000091680002600093680008953A
:1004D00000E008953CD0789402C047D180D04B9979
:1004E0005BD100914F030330D9F400E010D204E057
:1004F00009DEF8946DD003B70E7F03BF65D071F3AA
:1005000032D159F300917403002339F300E0FADD8E
:1005100004E10093730327D189F064D6A1D50FC0FD
:10052000002329F40CD14B9BD9CF3ED0D8CF023039
:1005300029F732D102E0E6DD02D1D0CF8DD600918D
:100540007403002359F200E000937403C7CFECEF6B
:10055000FBE1049100934C03EDEF049100934D03F4
:1005600001E000934F0300935C0300936C0300E0F1
:10057000C9DD05B70F7E05BFD7DDA6D12098289A23
:10058000509858985198599856985E9807B10F7C92
:1005900007B908B1006308B90BE9D4DD08DE88DFCC
:1005A00062D373D60AE0B3C10091730300230895A8
:1005B0000093730308954B9903C006D009F002C05D
:1005C00000E0089501E0089500916C030023089570
:1005D00003B7016003BF05E003BF88950895B9DD47
:1005E0000023A1F40091030200FF0EC001FF08C028
:1005F00020E20BE213E0E9DD002311F008D043D044
:10060000A8DD002319F4D3CDA9DD75DE08958A9302
:10061000F6DDEBE2F3E0108110A3173210F00023B7
:1006200041F18181145019F11C50A9F01A9549F03B
:100630001A9561F01A9569F01D5089F01A9599F094
:1006400018C0082F64D180935D0313C0082F79D19F
:1006500010C011D20EC00FD000935C030AC00BD0A3
:1006600000936C0306C000E000936E0302C0809309
:10067000500389910895882319F001E016D1A2CF83
:1006800000E013D19DCFE3D7BADD023090F50091A1
:100690004B03ECE4F3E010E0DF01A00FB11F1C916D
:1006A00010932B03002389F00A9589F00F5099F0DD
:1006B0000A9539F00A9539F00E5079F0035089F017
:1006C00014C001890BC018D109C0ECEF01C0EDEFD7
:1006D000FBE1049103C0008901C000A100932B033A
:1006E00004C000E003A301E02DD021E00BE213E001
:1006F0003CDDE4E0BDC70CE413E00895E5E7F3E07A
:100700000081118122813381089501E000937403F7
:100710000895ECE4F3E01581102B1583009151034B
:1007200041F0013031F40BD005D0549A5C9802D0DE
:1007300006D0089503E00A95F1F700000895549853
:100740005C9808950095ECE4F3E01581102315837F
:1007500009F4F5DF089507D029F0BADE002309F483
:1007600041C589C579C527DF31CFF5DF0091730316
:10077000002311F4F8DF11F401E0C4CCBDD0002354
:1007800011F003E0BFCCBADC0FDF01E0BBDC4B991A
:1007900003D0AEDC04E10CCF17DF09F05DD508957E
:1007A0001FD000FF13C00260008302E800938000A6
:1007B00009E10093810000E000938500009384002C
:1007C00000E717E11093870000938600089508D092
:1007D0000D7F008300E00093800000938100089566
:1007E000E9E7F3E000810895219A2998D9DF07E726
:1007F00011E03DD0EED00091860010918700078B6C
:10080000108F0091880010918900018F128F089538
:100810001CD7C80190D0FD010789108D0817190752
:1008200018F44788508C01C02C01018D128D0415DD
:10083000150589F0082F092B29F466D006700430BD
:1008400021F402C00C9101FFABDFFD01418E528EFD
:10085000018D128D0CD0892B41F470D00A3028F410
:1008600053D00E70023009F4B2DFE6E0FFC61093F9
:100870008900009388000895202FF0E0E02FEA5FC0
:10088000FD4F008110E0002309F43CC0283018F42B
:1008900043E07AD606C044E077D6203108F02695AA
:1008A000269530E0020F131F089593D01081117028
:1008B000011749F000FB008100F9008300FD70CFB3
:1008C000037F008384DF08958BDF037F008300E7CD
:1008D00017E1018B128B00E010E0038B048B06877D
:1008E00007870FEF02871387148715870081016040
:1008F00000837ACF01E0089507D000FF03C00C7099
:1009000009F0F8CF00E0089500917903089512D01E
:100910001C9110FF0EC0177F1C9300937A03109157
:100920008903112309F04FD00C9102FD02C040D180
:100930006FDF9BC08CD6A9E7B3E0089500917A03DE
:10094000089585D6802F94D000FF3CC087FB26F405
:10095000F5DF39D001E003C00FEF3ED000E0009397
:10096000890381700C9102FB00E000F9081751F136
:100970000C91077F0C9380FB2EF008E414EFFD012F
:10098000038F148F00E0FD01058F068F0685178504
:10099000202F212B19F000311D4020F404E01FE02E
:1009A0000687178700810B7F880F880F082B00832D
:1009B0000181108112FF05C0002309F4F1DE98DBEC
:1009C00001C0A5DF52C0003810F00FEF05C0000FC6
:1009D00003C0E9E7F3E00895003208F400E210E014
:1009E000F8DF02871387089542D002FF3EC05B966E
:1009F000D1D00F5F1F4F1C930E935B971123FAF01A
:100A0000033826E0120764F00D3812073CF100317C
:100A10002DE012076CF420E13DE0201B310B890131
:100A200046E050E0D5D51130C8F426DF5D9609C008
:100A30001E962D913C911F970217130730F4A9D0F1
:100A400019960D931C935E9709C0A3D019960D9328
:100A50001C93139700E00D930C935C979ED029F0A4
:100A60005D964D915C91549785D0E4E001C6EFD539
:100A700062DF0C9108955EDF47DF09700130B1F548
:100A80000C9102FF05C000E05CDF0C9104600C9348
:100A900080917A03082FF0DEFD01028313832AEF91
:100AA00030E0268337832087318721893289201BD4
:100AB000310B89014AEF50E073D5E9E704831583D0
:100AC000202F212B29F401E010E00483158307C0B7
:100AD000093020E0104018F008E0048325830C91D1
:100AE00008600C93882309F45BDE02DBBECFBFDF16
:100AF00003FF3FC016964ED01797012B99F0129620
:100B000049D01E962D913C9152970217130730F44D
:100B100049D0200F311F3C932E93129716964AD03E
:100B200016971DC0189636D01997012B79F03AD038
:100B300013970217130730F41396201B310B3C93C5
:100B40002E931297189636D0189709C031D0129666
:100B50000D931C9313972C91277F2C9359DE0C91A6
:100B600003FF07C01AD029F012964D915C91179699
:100B700001D07BCF6D917C91579F202D469F112DE9
:100B8000569F100D211D749F100D211D012F122F36
:100B90003FCE53960D911C9108955596FBDF5697C5
:100BA000037008951496F6DF13972D913C910895E4
:100BB000C5DE62CEEFDF015010401C930E93089506
:100BC000A3DE00FF06C003FF02C091DF02C002FDEA
:100BD0000BDFFFDE058916890F5F1F4F058B168B14
:100BE00008951DD021F408E810E0008311830895D2
:100BF0002ED5B02FC901A12FDEDC002311F400E0B7
:100C00000CC00DD031F4EDDF0AD019F40FEF1FEF57
:100C100005C01A2F9C010B2F09DC10E054C1E8E934
:100C2000F3E000811181012B08958A93FA93EA93EE
:100C30003A922A921A920A928DD413D48FB7E09ADC
:100C400064DDB9DC002309F4E8988FBF099119919C
:100C5000299139910CD40990199029903990E991F2
:100C6000F99189911895F3D42BD200810D7F0083DF
:100C700052985A9A009169000D7F00936900009183
:100C800069000E7F00936900E898ABEBB3E033DDB9
:100C90000F5D1F4F0D931C9311972DDD0E5D1F4FA0
:100CA000FD010283138327DD0D5D1F4FFD010483CA
:100CB00015830EE1ED91FC91119700830CE211E098
:100CC000FD0105A716A704E610E00787108B118B1E
:100CD000128BCBD2F8C08A93812F00919B0380178F
:100CE00021F00FEFD2DB80939B0300E010E08991AD
:100CF0000895ACD4C901B42F402EEDDF202F212B55
:100D000059F4A5E01B2F9C01042D72DF202F212B0D
:100D100019F024D0AA95B1F7E5E0A9C497D4299792
:100D2000402EC901A42FD7DF202F212BA9F4488200
:100D30004A2F50E09C018E010F5F1F4FA4D485E025
:100D40001A2F9E012F5F3F4F088182DB10E00023A6
:100D500019F004D08A95A1F72996DECF23E02A95D1
:100D6000F1F70000089573D46397AAE9B3E0CED1F8
:100D7000FD0103891489C7D10AF46DC04EE09E01BC
:100D80002B5F3F4FFD01058916896881617058818D
:100D900051FB6DD052FB6BD053FB69D054FB67D035
:100DA00055FB65D056FB63D0550F50E0551F650FBE
:100DB00070E0060F171FA7D10AF44DC00D811E81E8
:100DC000FD01078310870F811885018712879ED147
:100DD0002C5F3F4F03891489095F70D1E2F14C8188
:100DE0009E012F5F3F4FFD0103891489085F66D183
:100DF00092F12A8121702093B5033C81333040F178
:100E00003B8137FF25C03A8131FB2ED032FB2CD0FD
:100E100033FB2AD034FB28D035FB26D036FB24D038
:100E2000330F30E0331F230F3B813170230F3B81A1
:100E300031FB13D032FB11D033FB0FD034FB0DD07C
:100E400035FB0BD036FB0CD02093B60322E001C05B
:100E500020E02093B703639636C002D03B8108950B
:100E600030E030F9230F0895FBDF3A81089550E018
:100E700050F9650F58810895EAD3102F00E01A95B4
:100E800049F01A95B1F01250C9F0145041F01850C1
:100E900059F017C01AD010FF14C001E812C015D0C5
:100EA00013FF0FC009E60DC010D014FF0AC00AE6F8
:100EB00008C00BD011FF05C007E603C006D012FD25
:100EC0000CE601C02196E4E0D3C3BDD110810895A2
:100ED000BED3802FFDDA002371F43FD1A281B3810C
:100EE0000C9103950C930481F581E02F8083882376
:100EF00011F001E00EDCE7CF30D1078510892189A0
:100F000032894385548565857685078010842184E0
:100F1000328440195109620973090417150726071D
:100F200037071CF401E0038B15C00091CF030023A9
:100F300089F00091CE03002369F4C1D1ABD20091B6
:100F4000C103003821F098DF002309F0C1DF00E879
:100F50000093C10300E00093CF030093CE030895F4
:100F600076D3C801D9010091CF03002339F0009155
:100F7000CE03002339F4082FA8D104C07CDD9D01E5
:100F80008C0184D1A0CF5FD360974424B7DBC80124
:100F9000D9010AE0502E94D06788708C4091B70335
:100FA0004423C9F028EB33E06091B6038301060FB8
:100FB000141DA9D022F121E002E0502E3091B80397
:100FC000422F01E010E0E0D2302329F4222309F07F
:100FD0002A955A9499F70091BA03051508F0502EF6
:100FE000552021F437D040929F0309C048E09E016C
:100FF0000091B50310E0060D171D85D012F400E036
:1010000025C002E0501620F001E00093CE03F7CF98
:1010100008810023B9F00A9511F00550A1F401E010
:101020000093BA031A8109813C812B814091CF033F
:10103000442329F492D087839087A187B28790DFD9
:10104000439403C007D04092BA03042D10E0609689
:10105000E8E00AC382D083879487A587B6874CCF00
:101060008A93249780E0E2E3F0E0059115912591C1
:101070003491088319832A833B83E09A21D000812D
:1010800001FD03C00FEF1FEF17C00FEF018344E016
:101090009E01078510890F5F11D072F0088102FF51
:1010A00009C071DF802F002311F001E001C000E0D2
:1010B00000939F03082F10E0249619CE1F4F23C0E2
:1010C000EAE9F3E008952DD0023051F418D042F04F
:1010D0000881087F01601DD01AF00C9104600C9308
:1010E000F1CE1FD0063051F4B3D009D03AF00881C8
:1010F000087F0FD01AF00C910B7F0C93E3CE06D033
:101100000D911C911E97F5DD1123089541E09E017C
:1011100008950883FBDF1D960D911C911E97FEDD3F
:10112000F3CF95D22197A7EAB3E000919A03067016
:10113000089513D000E0058B068B078B008F038783
:101140000487058706870783008701870287009346
:101150009E03038B00E806830895EBEBF3E008950C
:1011600074D22697A0E0B0E009EE402E55245A2A0A
:1011700046E09E018201C7DF92F12D81222351F1C9
:101180002A9519F0215181F01CC0288130E098DFA8
:10119000238734872A81258736872B812787308BC1
:1011A0002981218B328B0DC028818ADF238BA48B70
:1011B0002A81258BA68B2B81278BA08F2981218FBC
:1011C000A28F2AEF420E2FEF521E2BE0421620E094
:1011D000520668F61196AA3020E0B20728F2269649
:1011E000E6E044C234D22FD00081002359F1AAE9AD
:1011F000B3E00C9100FD26C02BD00C9101FD1CC06A
:1012000004E000939C030AE000939D03A9DF1123EF
:101210001AF4A6DF1123B2F0A6DD11231AF4A3DD20
:10122000112382F00C910B7F0C9302600C9300E071
:1012300000939E0300939F0354DF7BDFE89A0C9199
:1012400001600C9340CEABEBB3E0ED91FC910895BF
:101250000FEF00939B03089500919A0300FF04C0D1
:10126000E8983FDF02D065DF0895EAE9F3E0008106
:101270000E7F0083089500919A030570013021F4D8
:10128000E7DF57DFE8981FDF08950895E0D14FEFBB
:1012900040930603D9D0C801CCD0D9018C01ECD041
:1012A0005CDF85A396A3A7A3B0A781A392A3A3A362
:1012B000B4A300E00093070301E0048B04CEBED08A
:1012C000DBD000E00093CF030895B6D12C97409176
:1012D000CF03442309F48AC0B7D00A831B83A9D063
:1012E000288339830091070302300A811B8138F477
:1012F000B1D0E6E0F3E001810395018377C001A757
:1013000012A70881198103A714A701A112A125A181
:1013100036A12801421A530A652C660C66088A8099
:101320009B80801A910AA92CAA0CAA0803A114A1D7
:1013300027A130A5C801821B930BA92FAA0FAA0BC6
:10134000C880D980C01AD10AED2CEE0CEE08A2019B
:10135000662D762D6AD085D08C012A2F3A2FA601D2
:101360006E2D7E2D83D0400F511F621F731F4C8343
:101370005D836E837F83E0D028013901E4D0400E85
:10138000511E621E731E488659866A867B86A4019A
:101390006A2D7A2D4AD0C801D90186012E2D3E2D05
:1013A000A6016E2D7E2D27D1800F911FA21FB31F86
:1013B0000C811D812E813F81A801B9011CD128011A
:1013C000390148015901880C991CAA1CBB1C0885CD
:1013D00019852A853B85AC01BD010DD13F803320A5
:1013E00042F01ED094F00A811B8134D02C96EFE09D
:1013F00034C116D054F040165106620673069CF7AD
:10140000081519052A053B0574F719D035D016D0F3
:1014100005A316A327A330A700E000930703E6CF98
:1014200080169106A206B306089584012A2D3A2D4E
:10143000E2C0018D128D201B310B08958EDE01A1BB
:1014400012A123A134A1089588DE438D548D041B7D
:10145000150B089501A312A30881198103A314A3F6
:1014600008953A932A931A930A930895C4D0499100
:101470005991699179910895E6E0F3E040814395AF
:1014800040834F7054E0459F6AD0008311832283CC
:1014900033830895D0D000E80093C1030091060380
:1014A000013009F045C0EAEEF3E044805580008148
:1014B0001181401A510A652C660C66088681978155
:1014C00002811381801B910BA92FAA0FAA0B34D084
:1014D0004801590138D0680179013FDE05A516A5FC
:1014E00020E030E0A401B5014C0D5D1D6E1D7F1D97
:1014F00031D0A80160E070E0B9DF40175107620702
:101500007307B0F08C149D04AE04BF0430F4AA231A
:1015100012F004E00CC002E00AC0C814D904EA04C6
:10152000FB0430F4662012F000E101C008E00683FD
:101530000091C103E0E190C0A201662D762D8201E9
:10154000262D362D58C0AC016A2F7A2F8C012A2FF8
:101550003A2F51C07A936A935A934A930895EAEEC8
:10156000F3E0E00DF11D089500008895FECF0FED2A
:101570000DBF01E00EBFC0E8D1E083D0002309F029
:101580009FD0A8D7F1DFF0CF4A951AF0000F111FB6
:10159000FBCF08954A951AF015950795FBCF08954E
:1015A00000241124EFE0001F111F001C111C041661
:1015B000150610F0041A150AEA95AAF7001F111F64
:1015C000A0010095109508955195419550400895BA
:1015D000FF27552312F4F160F7DF112312F4F09581
:1015E00006D0DEDFF0FD03D0F1FDEECF08951195BA
:1015F0000195104008952224349F302D259F300DF1
:10160000169F300D079F300D249F202D310D159F03
:10161000200D311D069F200D311D149F102D210D11
:10162000321D059F100D211D321D049F002D110D2F
:10163000221D321D0895FA92EA92DA92CA92BA9263
:10164000AA929A928A927A926A925A924A92BA93F9
:10165000AA939A938A930895FF84EE84DD84CC84C0
:10166000BB84AA84998488847F806E805D804C804E
:10167000BB81AA8199818881F0E0EC0FFD1FEF0109
:10168000089501E00895E3DFD80105C0F901608104
:101690006D932F5F3F4FBA0141505040672BB1F718
:1016A000E4E0E6CF20E006D0E9F70895259102D0E6
:1016B000E9F708952D9301501040202F212B089514
:1016C00086E390E0FC0105911491FC013296A5910E
:1016D000B491FC01349625913491422F432B19F09B
:1016E000F901E4DF01C0DEDF069610E082349107E5
:1016F00048F30895FF000000000000000000000013
:1017000000000000000000000000000000000000D9
:10171000000000000000F8000000000000000101CF
:10172000020203030303030303030303030303048A
:101730000404040404040404040404040404040469
:101740000405050505050505050505060606060645
:1017500006070707070808080808090909090A0A07
:101760000A0A0B0B0B0C0C0C0C0D0D0D0E0E0E0FB4
:101770000F10101011111212121313141415151545
:1017800016161717181819191A1B1B1C1C1D1D1EBD
:101790001F1F20212122232324252526272728290E
:1017A0002A2B2B2C2D2E2F2F303132333435363738
:1017B00038393A3B3C3D3E3F404142434445464830
:1017C000494A4B4C4E4F50515354555758595B5CF6
:1017D0005E5F606263656668696B6D6E707173757C
:1017E00076787A7C7D7F81838586888A8C8E9092BC
:1017F0009496989A9C9EA0A3A5A7A9ABAEB0B2B5AB
:10180000B7B9BCBEC0C3C5C8CACDD0D2D5D7DADD42
:10181000E0E2E5E8EBEEF0F3F6F9FFFFFFFFFFFF94
:10182000FFFFFFFFFFFFFFFFFFFFFFFFFFFFFFFFC8
:10183000FFFFFFFFFFFFFFFFFFFFFFFFFFFFFFFFB8
:10184000FFFFFFFFFFFFFFFFFFFFFFFFFFFFFFFFA8
:10185000FFFFFFFFFFFFFFFFFFFFFFFFFFFFFFFF98
:101BF000FFFFFFFFFFFFFFFFFFFFFFFF4D01CC30A7
:0400000300000000F9
:00000001FF
